:100000000C942A000C94E0030C9447000C944700D5
:100010000C9447000C9447000C9447000C94470044
:100020000C9447000C9447000C9447000C94470034
:100030000C9447000C9447000C9447000C94470024
:100040000C9447000C9447000C9447000C94470014
:100050000C94470011241FBECFE5D8E0DEBFCDBF12
:1000600012E0A0E6B0E0EEE2F1E202C005900D92EF
:10007000AA30B107D9F712E0AAE0B2E001C01D92A0
:10008000A232B107E1F70E9490040C9495100C94F1
:100090000000672B09F09FC0009711F4D8980895CD
:1000A0008130910511F4D99808958230910511F4A9
:1000B000DA9808958330910511F4DB98089584301F
:1000C000910511F4DC9808958530910511F4DD98BF
:1000D00008958630910511F4DE98089587309105D2
:1000E00011F4DF9808958A30910511F4C0980895AD
:1000F0008B30910511F4C19808958C30910511F45D
:10010000C29808958D30910511F4C39808958E30EA
:10011000910511F4C49808958F30910511F4C59894
:1001200008958031910511F4C698089581319105A3
:1001300011F4C79808958431910511F4A898089591
:100140008531910511F4A99808958631910511F42E
:10015000AA9808958731910511F4AB9808958831D4
:10016000910511F4AC9808958931910511F4AD9879
:1001700008958A31910511F4AE9808958B31910557
:1001800011F4AF9808958E31910511F49098089567
:100190008F31910511F4919808958032910511F4F1
:1001A000929808958132910511F4939808958232BE
:1001B000910511F4949808958332910511F495985E
:1001C00008958432910511F496980895859709F061
:1001D0009FC097980895009711F4D89A0895813098
:1001E000910511F4D99A08958230910511F4DA9AA3
:1001F00008958330910511F4DB9A089584309105B8
:1002000011F4DC9A08958530910511F4DD9A089572
:100210008630910511F4DE9A08958730910511F426
:10022000DF9A08958A30910511F4C09A08958B30B1
:10023000910511F4C19A08958C30910511F4C29A78
:1002400008958D30910511F4C39A08958E3091056B
:1002500011F4C49A08958F30910511F4C59A089548
:100260008031910511F4C69A08958131910511F4F8
:10027000C79A08958431910511F4A89A089585319B
:10028000910511F4A99A08958631910511F4AA9A5D
:1002900008958731910511F4AB9A0895883191053D
:1002A00011F4AC9A08958931910511F4AD9A08952D
:1002B0008A31910511F4AE9A08958B31910511F4AC
:1002C000AF9A08958E31910511F4909A08958F3167
:1002D000910511F4919A08958032910511F4929A42
:1002E00008958132910511F4939A0895823291050F
:1002F00011F4949A08958332910511F4959A089512
:100300008432910511F4969A0895859709F4979A85
:1003100008950F931F93082F182F80FF05C080E0CA
:1003200090E061E070E004C080E090E060E070E0A8
:100330000E94490011FF05C081E090E061E070E09B
:1003400004C081E090E060E070E00E94490012FF8C
:1003500005C082E090E061E070E004C082E090E0DF
:1003600060E070E00E94490013FF05C083E090E068
:1003700061E070E004C083E090E060E070E00E9423
:10038000490014FF05C088E190E061E070E004C01E
:1003900088E190E060E070E00E94490015FF05C030
:1003A00089E190E061E070E004C089E190E060E004
:1003B00070E00E94490016FF05C08AE190E061E00C
:1003C00070E004C08AE190E060E070E00E944900C3
:1003D00007FF05C08BE190E061E070E004C08BE1B5
:1003E00090E060E070E00E9449001F910F91089535
:1003F0000F931F93182F84E190E060E070E00E945B
:100400004900812F0E94890186E190E061E070E05F
:100410000E94490000ED17E0C8010197F1F786E15D
:1004200090E060E070E00E944900C8010197F1F798
:100430001F910F91089581E00E94F8010895813085
:1004400029F4862F80580E94F8010895823021F403
:10045000862F80540E94F801089584E190E060E0C6
:1004600070E00E94490086E190E060E070E00E9448
:10047000490080E49CE90197F1F780E30E94F801CC
:1004800080E197E20197F1F780E30E94F80180EDA7
:1004900097E00197F1F780E30E94F80180E29EE483
:1004A0000197F1F788E30E94F8018CE00E94F801BF
:1004B00081E00E94F80186E00E94F80108950F9300
:1004C0001F93182F84E190E061E070E00E944900E2
:1004D000812F0E94890186E190E061E070E00E9436
:1004E000490000ED17E0C8010197F1F786E190E0BF
:1004F00060E070E00E944900C8010197F1F71F9188
:100500000F910895CF93DF93EC0102C00E945F0228
:1005100089918823D9F7DF91CF9108958CE10E94CA
:10052000F801089588E10E94F8010895CF93DF93C0
:10053000C82F80FF05C088E190E061E070E004C052
:1005400088E190E060E070E00E944900C1FF05C0D2
:1005500089E190E061E070E004C089E190E060E052
:1005600070E00E944900C2FF05C08AE190E061E0AE
:1005700070E004C08AE190E060E070E00E94490011
:10058000C3FF05C08BE190E061E070E004C08BE147
:1005900090E060E070E00E944900DF91CF91089503
:1005A0000F931F93182F84E190E060E070E00E94A9
:1005B0004900812F0E94960286E190E061E070E0A0
:1005C0000E94490000ED17E0C8010197F1F786E1AC
:1005D00090E060E070E00E944900C8010197F1F7E7
:1005E0001F910F91089580E00E94D00281E00E9447
:1005F000D00208951F93813019F4162F105804C0AB
:10060000823059F4162F1054812F82958F700E94DA
:10061000D002812F8F700E94D0021F91089580E038
:100620000E94960280E49CE90197F1F783E00E9422
:10063000D00280E197E20197F1F783E00E94D002B7
:1006400080EF95E50197F1F783E00E94D00282E008
:100650000E94D00282E00E94D00288E00E94D00274
:1006600080E00E94D0028CE00E94D00280E00E94D4
:10067000D00286E00E94D0020895FF920F931F934C
:10068000F82E84E190E061E070E00E9449008F2D37
:1006900082958F700E94960286E190E061E070E0A2
:1006A0000E94490000ED17E0C8010197F1F786E1CB
:1006B00090E060E070E00E944900C8010197F1F706
:1006C0008F2D8F700E94960286E190E061E070E0CD
:1006D0000E944900C8010197F1F786E190E060E0CF
:1006E00070E00E944900C8010197F1F71F910F9136
:1006F000FF900895CF93DF93EC0102C00E943D0369
:1007000089918823D9F7DF91CF91089581E00E94E4
:10071000D0028CE00E94D002089581E00E94D002B5
:1007200088E00E94D00208958FEF84BB82B38C6072
:1007300082BB8AE085BF80EC8BBF089510BC83E349
:1007400089B91BB886E880BD88E98AB908955F9B9E
:10075000FECF8CB108955D9BFECF8CB9089520E04B
:1007600030E0FC01E20FF31FE081EE2341F05D9BDE
:10077000FECFECB92F5F3F4F2F3F310591F7089522
:1007800080E090E05F9BFECF2CB10196893091050F
:10079000C9F70895C4988FB9779BFECF6FB9779B3F
:1007A000FECFC49A08958FEF81BB8FB5826A8FBD4B
:1007B0008EB58A618EBD80E29EE497BD86BD0895A8
:1007C0001F920F920FB60F9211248F939F938091D7
:1007D0000A0290910B02019690930B0280930A02F9
:1007E000029724F010920B0210920A029F918F91AF
:1007F0000F900FBE0F901F9018950F931F9380912D
:100800000A0290910B02009721F0019709F085C030
:100810002AC08EED90E060E670E00E94910D81E0CC
:1008200061E00E94FA028EED90E00E947A038091CE
:10083000DC009091DD008230910559F08330910504
:1008400069F0019709F069C08EEE90E06DE670E006
:100850005AC08EEE90E068E770E055C08EEE90E0F2
:1008600063E870E050C08EED90E06EE870E00E94AA
:10087000910D81E061E00E94FA028EED90E00E940D
:100880007A038091DC009091DD008230910591F136
:1008900083309105A1F1019709F03FC000D000D04D
:1008A00000D0EDB7FEB731960EEE10E0ADB7BEB793
:1008B00012961C930E9311978BE990E09383828399
:1008C00080910C0290910D0262E070E00E94D20CC7
:1008D000758364830E94980D8DB79EB706960FB6F8
:1008E000F8949EBF0FBE8DBF82E061E00E94FA02C5
:1008F000C80111C08EEE90E067EA70E004C08EEE91
:1009000090E062EB70E00E94910D82E061E00E9455
:10091000FA028EEE90E00E947A031F910F910895E3
:100920002F923F924F925F926F927F929F92AF92DF
:10093000BF92CF92DF92EF92FF920F931F93CF93CC
:10094000DF930E94810D6EE170E00E94D20CEEE117
:100950009E2E980E1FEF1ABBD89880EB87BB87E8B6
:1009600086B985EE87B90E940F030E94D30381E503
:100970008DB989E063E00E94CA038BE062E00E94C7
:10098000CA038CE061E00E94CA038AE069E00E9429
:10099000CA0314BB82B38C6082BB8AE085BF80EC43
:1009A0008BBF10BC83E389B91BB886E880BD88E99A
:1009B0008AB978947EE0672E72E0772E62EC462E3C
:1009C00060E0562EC8ECD0E051E0252E312C00D04E
:1009D00000D000D0EDB7FEB73196ADB7BEB71296D6
:1009E0007C926E9211975382428280910C02909178
:1009F0000D0262E070E00E94D20C758364830E9455
:100A0000980D2DB73EB72A5F3F4F0FB6F8943EBF03
:100A10000FBE2DBF8BEC90E00E94AF03C3010E947C
:100A2000AF03369A349BFECF0E94FD038091DC0019
:100A30009091DD008230910509F49BC083309105CF
:100A400009F41CC1019719F6892D6AE00E94C60CB1
:100A5000682F81E00E94CA03892D6AE00E94C60CBB
:100A600082E0692F0E94CA03D89ADC9ADA98DB9850
:100A70006091DA007091DB00882777FD8095982FD0
:100A80000E941F0A5B016C0120E030E04AEF54E451
:100A90000E9495087B018C0120E030E040E85FE394
:100AA0000E94EF0988231CF461E070E022C0C801B5
:100AB000B70120E03FEF4FE757E40E948F09181677
:100AC000A4F4C601B50120E030E040E251E40E9408
:100AD00095080E94BF0605C0CE010197F1F761504D
:100AE000704061157105C1F707C0C801B7010E94C8
:100AF000BF06CB010197F1F784B195B146E0969519
:100B000087954A95E1F790930D0280930C02AC0112
:100B1000A4E6B0E04A9FC0014B9F900D5A9F900DF4
:100B200011249BBD8ABD99BD88BD9A94892D8150A1
:100B3000833080F4DB9A88EE93E0FE013197F1F781
:100B40000197D9F7DB9888EE93E0FE013197F1F732
:100B50000197D9F7992009F03ACF8091DC00909164
:100B6000DD0001969093DD008093DC0033E0932E4E
:100B70002ECF892D6AE00E94C60C682F81E00E946A
:100B8000CA03892D6AE00E94C60C82E0692F0E9488
:100B9000CA03D99AD8986091DA007091DB0088274F
:100BA00077FD8095982F0E941F0A5B016C0120E061
:100BB00030E04AEF54E40E9495087B018C0120E06C
:100BC00030E040E85FE30E94EF0988231CF461E015
:100BD00070E022C0C801B70120E03FEF4FE757E4C3
:100BE0000E948F091816A4F4C601B50120E030E078
:100BF00040E251E40E9495080E94BF0605C0CE0164
:100C00000197F1F76150704061157105C1F707C098
:100C1000C801B7010E94BF06CB010197F1F7DC982C
:100C2000DB9A88EE93E0FE013197F1F70197D9F74F
:100C3000DB9888EE93E0FE013197F1F70197D9F741
:100C400010920D0210920C021BBC1ABC19BC18BCED
:100C50009A9409F0BCCE0E94810D6EE170E00E9472
:100C6000D20C2EE1922E980E8091DC009091DD0046
:100C700001969093DD008093DC00A9CE892D6AE077
:100C80000E94C60C682F81E00E94CA03892D6AE089
:100C90000E94C60C82E0692F0E94CA03DA9ADB9A8E
:100CA000D998DC9810920D0210920C026091DA0033
:100CB0007091DB00882777FD8095982F0E941F0A8E
:100CC0005B016C0120E030E04AEF54E40E9495089B
:100CD0007B018C0120E030E040E85FE30E94EF09F7
:100CE00088231CF461E070E022C0C801B70120E055
:100CF0003FEF4FE757E40E948F091816A4F4C6018E
:100D0000B50120E030E040E251E40E9495080E94E5
:100D1000BF0605C0CE010197F1F761507040611523
:100D20007105C1F707C0C801B7010E94BF06CB011A
:100D30000197F1F79A94B2E0B91580F0DC9A88EE49
:100D400093E0FE013197F1F70197D9F7DC9888EE2F
:100D500093E0FE013197F1F70197D9F7992009F057
:100D600036CE0E94810D6EE170E00E94D20C9EE1B1
:100D7000992E980E3092DD002092DC0028CEEF9262
:100D8000FF920F931F937B018C0120E030E040E045
:100D90005FE40E94BF0988238CF0C801B70120E0FE
:100DA00030E040E05FE40E9437080E947D0A9B012A
:100DB000AC01205030404040504806C0C801B70147
:100DC0000E947D0A9B01AC01B901CA011F910F91DC
:100DD000FF90EF900895A0E0B0E0E1EFF6E00C9412
:100DE000F90CDC012B01FA019C91923008F439C115
:100DF000EB018881823008F433C1943069F4843087
:100E000009F02FC111969C9111978981981709F4C7
:100E100028C1AEEFB0E025C1843009F421C1823091
:100E2000A9F4923009F01DC19A01AD0188E0EA01F0
:100E30000990AE01E90109929E018150C1F7E201DA
:100E4000898111969C918923818308C1923009F48C
:100E500007C112962D903C901397EB018A819B81DC
:100E60001496AD90BD90CD90DC901797EC80FD80EE
:100E70000E811F819101281B390BB90137FF04C076
:100E800066277727621B730B603271050CF061C017
:100E9000121613066CF537014801062E04C096940D
:100EA0008794779467940A94D2F721E030E040E089
:100EB00050E004C0220F331F441F551F6A95D2F71C
:100EC00021503040404050402E213F2140235123AB
:100ED000211531054105510521F021E030E040E0C8
:100EE00050E079018A01E628F728082919293CC031
:100EF000232BD1F1260E371E35014601062E04C0E4
:100F000096948794779467940A94D2F721E030E01E
:100F100040E050E004C0220F331F441F551F6A9564
:100F2000D2F721503040404050402A213B214C21F3
:100F30005D21211531054105510521F021E030E009
:100F400040E050E059016A01A628B728C828D928EE
:100F50000BC0821593052CF01C01AA24BB2465014B
:100F600003C0EE24FF24870111969C91D2011196B3
:100F70008C91981709F445C0992339F0A80197017D
:100F80002A193B094C095D0906C0A60195012E19D5
:100F90003F09400B510B57FD08C01182338222825A
:100FA00024833583468357831DC081E08183338248
:100FB000228288279927DC01821B930BA40BB50B97
:100FC00084839583A683B7830DC0220F331F441FEC
:100FD000551F2483358346835783828193810197EC
:100FE000938382832481358146815781DA01C90147
:100FF0000197A109B1098F5F9F4FAF4FBF4328F3FE
:101000000BC0918333822282EA0CFB1C0C1D1D1D38
:10101000E482F5820683178383E08083248135810F
:101020004681578157FF1AC0C901AA2797FDA0958D
:10103000BA2F81709070A070B07056954795379513
:101040002795822B932BA42BB52B84839583A68382
:10105000B78382819381019693838283DF0101C0EC
:10106000D201CD01CDB7DEB7E2E10C94150DA0E2BF
:10107000B0E0EDE3F8E00C94050D69837A838B838F
:101080009C832D833E834F835887E9E0EE2EF12C1D
:10109000EC0EFD1ECE010196B7010E94F50B8E01EC
:1010A0000F5E1F4FCE010596B8010E94F50B8A898D
:1010B00091E089278A8BC701B801AE01475E5F4F77
:1010C0000E94EB060E94200BA096E6E00C94210DF6
:1010D000A0E2B0E0EEE6F8E00C94050D69837A83B7
:1010E0008B839C832D833E834F835887F9E0EF2EBB
:1010F000F12CEC0EFD1ECE010196B7010E94F50BFE
:101100008E010F5E1F4FCE010596B8010E94F50BB0
:10111000C701B801AE01475E5F4F0E94EB060E9417
:10112000200BA096E6E00C94210DA0E2B0E0EBE9E4
:10113000F8E00C94F90C69837A838B839C832D836C
:101140003E834F835887CE010196BE01675F7F4F74
:101150000E94F50BCE010596BE016F5E7F4F0E9487
:10116000F50B9985923088F089898230C8F09430E7
:1011700019F4823051F404C0843029F4923081F49F
:101180008EEF90E0C6C0923049F420E09A858A89BB
:10119000981321E02A87CE010996BBC0823049F41A
:1011A00020E09A858A89981321E02A8BCE01419606
:1011B000B0C02D843E844F8458886D887E888F8887
:1011C000988CEE24FF248701AA24BB24650140E00B
:1011D00050E060E070E0E0E0F0E0C101817090700C
:1011E000892BE9F0E60CF71C081D191D9A01AB01CB
:1011F0002A0D3B1D4C1D5D1D80E090E0A0E0B0E09D
:10120000E614F7040805190520F481E090E0A0E059
:10121000B0E0BA01A901480F591F6A1F7B1FAA0C31
:10122000BB1CCC1CDD1C97FE08C081E090E0A0E058
:10123000B0E0A82AB92ACA2ADB2A3196E032F105A1
:1012400049F0660C771C881C991C56944794379477
:101250002794C3CFFA85EA892B893C898B859C85A5
:10126000280F391F2E5F3F4F17C0CA018170907041
:10127000892B61F016950795F794E79480E090E04C
:10128000A0E0B0E8E82AF92A0A2B1B2B769567958F
:10129000579547952F5F3F4F77FDE7CF0CC0440F21
:1012A000551F661F771F17FD4160EE0CFF1C001FC6
:1012B000111F21503040403090E0590790E06907FD
:1012C00090E4790760F32B8F3C8FDB01CA018F77A5
:1012D0009070A070B07080349105A105B10561F4E3
:1012E00047FD0AC0E114F1040105110529F0405C35
:1012F0005F4F6F4F7F4F40781A8EFE1711F081E0DD
:101300008A8F4D8F5E8F6F8F78A383E0898FCE0198
:1013100049960E94200BA096E2E10C94150DA8E1DD
:10132000B0E0E5E9F9E00C94050D69837A838B83DD
:101330009C832D833E834F83588789E0E82EF12CD0
:10134000EC0EFD1ECE010196B7010E94F50B8E0139
:101350000F5E1F4FCE010596B8010E94F50B8985DF
:10136000823040F08989823028F0C701B8010E949C
:101370006D0C01C08FEF6896E6E00C94210DA8E19A
:10138000B0E0E5ECF9E00C94050D69837A838B837A
:101390009C832D833E834F83588789E0E82EF12C70
:1013A000EC0EFD1ECE010196B7010E94F50B8E01D9
:1013B0000F5E1F4FCE010596B8010E94F50B89857F
:1013C000823040F08989823028F0C701B8010E943C
:1013D0006D0C01C08FEF6896E6E00C94210DA8E13A
:1013E000B0E0E5EFF9E00C94050D69837A838B8317
:1013F0009C832D833E834F83588789E0E82EF12C10
:10140000EC0EFD1ECE010196B7010E94F50B8E0178
:101410000F5E1F4FCE010596B8010E94F50B89851E
:10142000823040F08989823028F0C701B8010E94DB
:101430006D0C01C081E06896E6E00C94210DA8E0F7
:10144000B0E0E5E2FAE00C94020D9B01AC0183E010
:101450008983DA01C9018827B7FD83959927AA27CF
:10146000BB27B82E211531054105510519F482E03D
:1014700089833AC08823A9F0203080E0380780E0D3
:10148000480780E8580729F460E070E080E09FECAE
:1014900030C0EE24FF248701E21AF30A040B150B77
:1014A00002C079018A018EE1C82ED12CDC82CB8268
:1014B000ED82FE820F831887C801B7010E94D10A0E
:1014C00001971816190684F4082E04C0EE0CFF1CB0
:1014D000001F111F0A94D2F7ED82FE820F83188736
:1014E000C81AD90ADC82CB82BA82CE0101960E9448
:1014F000200B2896E9E00C941E0DACE0B0E0E3E888
:10150000FAE00C94090D69837A838B839C83CE0166
:101510000196BE016B5F7F4F0E94F50B8D8182307B
:1015200061F1823050F1843021F48E81882351F1B1
:101530002EC02F81388537FD20C06E812F313105B7
:101540001CF06623F9F023C08EE190E0821B930B20
:1015500029853A854B855C8504C056954795379516
:1015600027958A95D2F76623B1F05095409530952E
:1015700021953F4F4F4F5F4F0EC020E030E040E0DD
:1015800050E009C02FEF3FEF4FEF5FE704C020E0CE
:1015900030E040E050E8B901CA012C96E2E00C943A
:1015A000250DEF92FF920F931F937B018C0180E03A
:1015B000E81680E0F80681E0080780E0180788F464
:1015C0008FEFE816F1040105110531F028F088E0ED
:1015D00090E0A0E0B0E017C080E090E0A0E0B0E0D4
:1015E00012C080E0E81680E0F80680E0080781E09D
:1015F000180728F088E190E0A0E0B0E004C080E1A6
:1016000090E0A0E0B0E020E230E040E050E0281BB5
:10161000390B4A0B5B0B04C016950795F794E794BA
:101620008A95D2F7F701EA5FFE4F8081281B3109C6
:1016300041095109C9011F910F91FF90EF90089541
:10164000DF92EF92FF920F931F93FC01E480F580ED
:1016500006811781D1808081823048F480E090E05B
:10166000A0E1B0E0E82AF92A0A2B1B2BA5C08430A0
:1016700009F49FC0823021F4EE24FF24870105C0C5
:10168000E114F1040105110519F4E0E0F0E096C061
:10169000628173819FEF623879070CF05BC022E8AA
:1016A0003FEF261B370B2A3131052CF020E030E0CC
:1016B00040E050E02AC0B801A701022E04C0769590
:1016C0006795579547950A94D2F781E090E0A0E09E
:1016D000B0E004C0880F991FAA1FBB1F2A95D2F73C
:1016E0000197A109B1098E219F21A023B123009761
:1016F000A105B10521F081E090E0A0E0B0E09A0101
:10170000AB01282B392B4A2B5B2BDA01C9018F77D0
:101710009070A070B07080349105A105B10539F4C6
:1017200027FF09C0205C3F4F4F4F5F4F04C0215C33
:101730003F4F4F4F5F4FE0E0F0E02030A0E03A072E
:10174000A0E04A07A0E45A0710F0E1E0F0E07901D8
:101750008A0127C06038710564F5FB01E158FF4F2D
:10176000D801C7018F779070A070B0708034910558
:10177000A105B10539F4E7FE0DC080E490E0A0E0DA
:10178000B0E004C08FE390E0A0E0B0E0E80EF91E06
:101790000A1F1B1F17FF05C016950795F794E794BE
:1017A000319687E016950795F794E7948A95D1F7D7
:1017B00005C0EE24FF248701EFEFF0E06E2F679560
:1017C00066276795902F9F77D794DD24D7948E2F27
:1017D0008695492F462B582F5D29B701CA011F91C5
:1017E0000F91FF90EF90DF900895FC01DB014081A5
:1017F00051812281622F6F7770E0221F2227221FE2
:101800009381892F880F822B282F30E0991F9927E9
:10181000991F11969C93119721153105A9F5411532
:1018200051056105710511F482E037C082E89FEF30
:1018300013969C938E9312979A01AB0167E0220F47
:10184000331F441F551F6A95D1F783E08C930DC059
:10185000220F331F441F551F12968D919C91139791
:10186000019713969C938E931297203080E038074F
:1018700080E0480780E4580758F314962D933D9371
:101880004D935C93179708952F3F310579F44115D7
:1018900051056105710519F484E08C93089564FF86
:1018A00003C081E08C9312C01C9210C02F573040AF
:1018B00013963C932E93129783E08C9387E0440F0A
:1018C000551F661F771F8A95D1F7706414964D9344
:1018D0005D936D937C93179708951F93DC01FB0133
:1018E0009C91923008F447C08081823008F443C054
:1018F000943051F411961C91843099F58181682FB0
:1019000070E0611B71093FC0843021F0923031F4E6
:101910008230B9F18181882389F12DC011961C9103
:1019200011978230F1F081811817D9F412962D9118
:101930003C911397828193818217930794F0281723
:101940003907BCF014968D919D910D90BC91A02DFE
:101950002481358146815781281739074A075B075B
:1019600018F4112341F00AC082179307A407B507A2
:1019700040F4112319F061E070E005C06FEF7FEFD4
:1019800002C060E070E0CB011F910895991B79E0DF
:1019900004C0991F961708F0961B881F7A95C9F7FF
:1019A0008095089597FB092E07260AD077FD04D06D
:1019B0000CD006D000201AF4709561957F4F0895E1
:1019C000F6F7909581959F4F0895AA1BBB1B51E197
:1019D00007C0AA1FBB1FA617B70710F0A61BB70B9F
:1019E000881F991F5A95A9F780959095BC01CD0144
:1019F00008952F923F924F925F926F927F928F92B3
:101A00009F92AF92BF92CF92DF92EF92FF920F938D
:101A10001F93CF93DF93CDB7DEB7CA1BDB0B0FB697
:101A2000F894DEBF0FBECDBF09942A883988488854
:101A30005F846E847D848C849B84AA84B984C884EA
:101A4000DF80EE80FD800C811B81AA81B981CE0FE1
:101A5000D11D0FB6F894DEBF0FBECDBFED010895C6
:101A6000A0E0B0E0E6E3FDE00C94010DEC01A880FD
:101A7000B980CA80DB80A114B104C104D10441F44F
:101A800084E2A82E89EDB82E8BE5C82E87E0D82EEB
:101A9000C601B5012DE133EF41E050E00E9458103E
:101AA00027EA31E440E050E00E9439107B018C01CC
:101AB000C601B5012DE133EF41E050E00E9458101E
:101AC000CA01B9012CEE34EF4FEF5FEF0E943910DD
:101AD0006E0D7F1D801F911F97FF04C061507040E5
:101AE00080409048688379838A839B839B013F77FA
:101AF000C901CDB7DEB7EAE00C941D0D0E94300D90
:101B0000089586E092E00E94300D0895A0E0B0E0D4
:101B10008093060290930702A0930802B0930902F3
:101B20000895FB01DC0101900D920020E1F708957A
:101B3000AEE0B0E0EEE9FDE00C94070D0D891E89E2
:101B400086E08C831A8309838FEF9FE79E838D83C2
:101B50009E01275E3F4FCE0101966F89788DA901C6
:101B60000E94BC0D2F813885020F131FF8011082CF
:101B70002E96E4E00C94230DABE0B0E0E2ECFDE047
:101B80000C94F90C3C012B015A01FC0117821682BE
:101B9000838181FD03C06FEF7FEFC6C19AE0892E7C
:101BA0001E010894211C311CF3012381F20123FD45
:101BB000859123FF81912F01882309F4B2C18532D9
:101BC00039F423FD859123FF81912F01853229F47A
:101BD00090E0B3010E94AF0FE7CF982FFF24EE24CF
:101BE0009924FFE1FF15D0F09B3269F09C3228F474
:101BF000903259F0933291F40EC09D3249F09033F7
:101C000069F441E024C052E0F52A84E0F82A28C0B3
:101C100098E0F92A25C0E0E1FE2A22C0F7FC29C09D
:101C2000892F80538A3070F4F6FE05C0989C902C62
:101C30001124980E15C0E89CE02C1124E80EF0E267
:101C4000FF2A0EC09E3229F4F6FC6BC140E4F42A50
:101C500007C09C3619F450E8F52A02C0983649F4BA
:101C6000F20123FD959123FF91912F01992309F012
:101C7000B8CF892F8554833018F08052833038F4E0
:101C800044E050E0A40EB51E5FE359830FC09336C5
:101C900031F0933779F0933509F056C020C0F50143
:101CA0008081898342E050E0A40EB51E610101E00D
:101CB00010E012C0F501C080D180F6FC03C06FEFC8
:101CC0007FEF02C0692D70E042E050E0A40EB51E27
:101CD000C6010E94A40F8C015FE7F52214C0F50134
:101CE000C080D180F6FC03C06FEF7FEF02C0692D8A
:101CF00070E042E050E0A40EB51EC6010E94990FAC
:101D00008C0150E8F52AF3FE07C01AC080E290E08B
:101D1000B3010E94AF0FEA948E2D90E008171907C7
:101D2000A8F30EC0F601F7FC8591F7FE81916F01D3
:101D300090E0B3010E94AF0FE110EA94015010400F
:101D40000115110579F7EAC0943611F0993669F555
:101D5000F7FE08C0F501208131814281538184E082
:101D600090E00AC0F501808191819C01442737FDF4
:101D70004095542F82E090E0A80EB91E9FE6F9220C
:101D800057FF09C050954095309521953F4F4F4FD3
:101D90005F4FE0E8FE2ACA01B901A1012AE030E064
:101DA0000E94DB0FD82ED21840C0953729F41F2D82
:101DB0001F7E2AE030E01DC01F2D197F9F3661F085
:101DC000903720F4983509F0ACC00FC0903739F047
:101DD000983709F0A6C004C028E030E00AC01061BE
:101DE00014FD146020E130E004C014FD166020E111
:101DF00032E017FF08C0F501608171818281938113
:101E000044E050E008C0F50180819181BC0180E090
:101E100090E042E050E0A40EB51EA1010E94DB0F4D
:101E2000D82ED2188FE7F82EF122F6FE0BC05EEF07
:101E3000F522D91438F4F4FE07C0F2FC05C08FEE89
:101E4000F82202C01D2D01C0192DF4FE0DC0FE01A7
:101E5000ED0DF11D8081803319F499EEF92208C04F
:101E60001F5FF2FE05C003C08F2D867809F01F5F4B
:101E70000F2DF3FC14C0F0FE0FC01E1510F09D2CAA
:101E80000BC09D2C9E0C911A1E2D06C080E290E086
:101E9000B3010E94AF0F1F5F1E15C0F304C01E15D3
:101EA00010F4E11A01C0EE2404FF0FC080E390E0BB
:101EB000B3010E94AF0F02FF1DC001FD03C088E700
:101EC00090E00EC088E590E00BC0802F867891F0FE
:101ED00001FF02C08BE201C080E2F7FC8DE290E0DE
:101EE000B3010E94AF0F06C080E390E0B3010E94EF
:101EF000AF0F9A94D914C0F3DA94F101ED0DF11DEE
:101F0000808190E0B3010E94AF0FDD20A9F706C0E9
:101F100080E290E0B3010E94AF0FEA94EE20C1F797
:101F200043CEF30166817781CB012B96E2E10C94DD
:101F3000150DFC010590615070400110D8F7809597
:101F400090958E0F9F1F0895FC0161507040019085
:101F50000110D8F7809590958E0F9F1F08950F93CD
:101F60001F93CF93DF938C01EB018B8181FF1BC00B
:101F700082FF0DC02E813F818C819D8128173907FA
:101F800064F4E881F9810193F983E88306C0E88568
:101F9000F985802F0995892B31F48E819F810196D7
:101FA0009F838E8302C00FEF1FEFC801DF91CF9197
:101FB0001F910F910895FA01AA27283051F120317D
:101FC00081F1E8946F936E7F6E5F7F4F8F4F9F4FCD
:101FD000AF4FB1E03ED0B4E03CD0670F781F891F0F
:101FE0009A1FA11D680F791F8A1F911DA11D6A0FDD
:101FF000711D811D911DA11D20D009F468943F9190
:102000002AE0269F11243019305D3193DEF6CF018E
:102010000895462F4770405D4193B3E00FD0C9F754
:10202000F6CF462F4F70405D4A3318F0495D31FDC1
:102030004052419302D0A9F7EACFB4E0A695979514
:10204000879577956795BA95C9F7009761057105EA
:1020500008959B01AC010A2E069457954795379534
:102060002795BA95C9F7620F731F841F951FA01D8E
:102070000895629FD001739FF001829FE00DF11DD2
:10208000649FE00DF11D929FF00D839FF00D749FF2
:10209000F00D659FF00D9927729FB00DE11DF91F9E
:1020A000639FB00DE11DF91FBD01CF0111240895FB
:1020B00097FB092E05260ED057FD04D014D00AD068
:1020C000001C38F450954095309521953F4F4F4F67
:1020D0005F4F0895F6F790958095709561957F4FC5
:1020E0008F4F9F4F0895A1E21A2EAA1BBB1BFD0123
:1020F0000DC0AA1FBB1FEE1FFF1FA217B307E407E7
:10210000F50720F0A21BB30BE40BF50B661F771F3E
:10211000881F991F1A9469F760957095809590951E
:0E2120009B01AC01BD01CF010895F894FFCFE3
:10212E004D6F64653A2057616C6B65720053746F26
:10213E00702120202020200052656164792120200A
:10214E00202000476F2061686561642120004D6F7B
:10215E0064653A2044726976657200476F2825647B
:10216E006B6D7C68292000536C6F7720646F776EDF
:10217E00210053746F7028306B6D7C6829202020ED
:10218E00200025640A6B6D2F680D00596F75722043
:10219E0073706565643A2000C409E80301002020CD
:1021AE002020202020202020202020202020202021
:1021BE002020202020202020202020202020000051
:1021CE0000000000000000010202030303030404E8
:1021DE0004040404040405050505050505050505A7
:1021EE000505050505050606060606060606060687
:1021FE000606060606060606060606060606060671
:10220E000606060606060707070707070707070756
:10221E000707070707070707070707070707070740
:10222E000707070707070707070707070707070730
:10223E000707070707070707070707070707070720
:10224E000707070707070808080808080808080806
:10225E0008080808080808080808080808080808F0
:10226E0008080808080808080808080808080808E0
:10227E0008080808080808080808080808080808D0
:10228E0008080808080808080808080808080808C0
:10229E0008080808080808080808080808080808B0
:1022AE0008080808080808080808080808080808A0
:1022BE000808080808080808080808080808080890
:0A22CE0008080808080801000000D5
:00000001FF
